{
  "contractName": "Proposal",
  "abi": [
    {
      "inputs": [
        {
          "internalType": "string",
          "name": "_title",
          "type": "string"
        },
        {
          "internalType": "string",
          "name": "_description",
          "type": "string"
        }
      ],
      "stateMutability": "nonpayable",
      "type": "constructor"
    },
    {
      "inputs": [],
      "name": "creator",
      "outputs": [
        {
          "internalType": "address",
          "name": "",
          "type": "address"
        }
      ],
      "stateMutability": "view",
      "type": "function"
    },
    {
      "inputs": [],
      "name": "description",
      "outputs": [
        {
          "internalType": "string",
          "name": "",
          "type": "string"
        }
      ],
      "stateMutability": "view",
      "type": "function"
    },
    {
      "inputs": [],
      "name": "executed",
      "outputs": [
        {
          "internalType": "bool",
          "name": "",
          "type": "bool"
        }
      ],
      "stateMutability": "view",
      "type": "function"
    },
    {
      "inputs": [
        {
          "internalType": "address",
          "name": "",
          "type": "address"
        }
      ],
      "name": "hasVoted",
      "outputs": [
        {
          "internalType": "bool",
          "name": "",
          "type": "bool"
        }
      ],
      "stateMutability": "view",
      "type": "function"
    },
    {
      "inputs": [],
      "name": "noVotes",
      "outputs": [
        {
          "internalType": "uint256",
          "name": "",
          "type": "uint256"
        }
      ],
      "stateMutability": "view",
      "type": "function"
    },
    {
      "inputs": [],
      "name": "title",
      "outputs": [
        {
          "internalType": "string",
          "name": "",
          "type": "string"
        }
      ],
      "stateMutability": "view",
      "type": "function"
    },
    {
      "inputs": [],
      "name": "yesVotes",
      "outputs": [
        {
          "internalType": "uint256",
          "name": "",
          "type": "uint256"
        }
      ],
      "stateMutability": "view",
      "type": "function"
    },
    {
      "inputs": [
        {
          "internalType": "bool",
          "name": "_voteYes",
          "type": "bool"
        }
      ],
      "name": "vote",
      "outputs": [],
      "stateMutability": "nonpayable",
      "type": "function"
    },
    {
      "inputs": [],
      "name": "executeProposal",
      "outputs": [],
      "stateMutability": "nonpayable",
      "type": "function"
    }
  ],
  "bytecode": "0x608060405234801562000010575f80fd5b5060405162000eed38038062000eed833981810160405281019062000036919062000240565b815f9081620000469190620004fa565b508060019081620000589190620004fa565b503360025f6101000a81548173ffffffffffffffffffffffffffffffffffffffff021916908373ffffffffffffffffffffffffffffffffffffffff1602179055505f600260146101000a81548160ff0219169083151502179055505050620005de565b5f604051905090565b5f80fd5b5f80fd5b5f80fd5b5f80fd5b5f601f19601f8301169050919050565b7f4e487b71000000000000000000000000000000000000000000000000000000005f52604160045260245ffd5b6200011c82620000d4565b810181811067ffffffffffffffff821117156200013e576200013d620000e4565b5b80604052505050565b5f62000152620000bb565b905062000160828262000111565b919050565b5f67ffffffffffffffff821115620001825762000181620000e4565b5b6200018d82620000d4565b9050602081019050919050565b5f5b83811015620001b95780820151818401526020810190506200019c565b5f8484015250505050565b5f620001da620001d48462000165565b62000147565b905082815260208101848484011115620001f957620001f8620000d0565b5b620002068482856200019a565b509392505050565b5f82601f830112620002255762000224620000cc565b5b815162000237848260208601620001c4565b91505092915050565b5f8060408385031215620002595762000258620000c4565b5b5f83015167ffffffffffffffff811115620002795762000278620000c8565b5b62000287858286016200020e565b925050602083015167ffffffffffffffff811115620002ab57620002aa620000c8565b5b620002b9858286016200020e565b9150509250929050565b5f81519050919050565b7f4e487b71000000000000000000000000000000000000000000000000000000005f52602260045260245ffd5b5f60028204905060018216806200031257607f821691505b602082108103620003285762000327620002cd565b5b50919050565b5f819050815f5260205f209050919050565b5f6020601f8301049050919050565b5f82821b905092915050565b5f600883026200038c7fffffffffffffffffffffffffffffffffffffffffffffffffffffffffffffffff826200034f565b6200039886836200034f565b95508019841693508086168417925050509392505050565b5f819050919050565b5f819050919050565b5f620003e2620003dc620003d684620003b0565b620003b9565b620003b0565b9050919050565b5f819050919050565b620003fd83620003c2565b620004156200040c82620003e9565b8484546200035b565b825550505050565b5f90565b6200042b6200041d565b62000438818484620003f2565b505050565b5b818110156200045f57620004535f8262000421565b6001810190506200043e565b5050565b601f821115620004ae5762000478816200032e565b620004838462000340565b8101602085101562000493578190505b620004ab620004a28562000340565b8301826200043d565b50505b505050565b5f82821c905092915050565b5f620004d05f1984600802620004b3565b1980831691505092915050565b5f620004ea8383620004bf565b9150826002028217905092915050565b6200050582620002c3565b67ffffffffffffffff811115620005215762000520620000e4565b5b6200052d8254620002fa565b6200053a82828562000463565b5f60209050601f83116001811462000570575f84156200055b578287015190505b620005678582620004dd565b865550620005d6565b601f19841662000580866200032e565b5f5b82811015620005a95784890151825560018201915060208501945060208101905062000582565b86831015620005c95784890151620005c5601f891682620004bf565b8355505b6001600288020188555050505b505050505050565b61090180620005ec5f395ff3fe608060405234801561000f575f80fd5b5060043610610091575f3560e01c80634a79d50c116100645780634a79d50c1461010b5780634b9f5c98146101295780637284e41614610145578063b5b47f4214610163578063fb286c651461018157610091565b806302d05d3f1461009557806309eef43e146100b357806331a38c89146100e3578063373058b814610101575b5f80fd5b61009d61019f565b6040516100aa919061052f565b60405180910390f35b6100cd60048036038101906100c89190610576565b6101c4565b6040516100da91906105bb565b60405180910390f35b6100eb6101e1565b6040516100f891906105bb565b60405180910390f35b6101096101f4565b005b610113610261565b604051610120919061065e565b60405180910390f35b610143600480360381019061013e91906106a8565b6102ec565b005b61014d610458565b60405161015a919061065e565b60405180910390f35b61016b6104e4565b60405161017891906106eb565b60405180910390f35b6101896104ea565b60405161019691906106eb565b60405180910390f35b60025f9054906101000a900473ffffffffffffffffffffffffffffffffffffffff1681565b6005602052805f5260405f205f915054906101000a900460ff1681565b600260149054906101000a900460ff1681565b600260149054906101000a900460ff1615610244576040517f08c379a000000000000000000000000000000000000000000000000000000000815260040161023b90610774565b60405180910390fd5b6001600260146101000a81548160ff021916908315150217905550565b5f805461026d906107bf565b80601f0160208091040260200160405190810160405280929190818152602001828054610299906107bf565b80156102e45780601f106102bb576101008083540402835291602001916102e4565b820191905f5260205f20905b8154815290600101906020018083116102c757829003601f168201915b505050505081565b600260149054906101000a900460ff161561033c576040517f08c379a000000000000000000000000000000000000000000000000000000000815260040161033390610774565b60405180910390fd5b60055f3373ffffffffffffffffffffffffffffffffffffffff1673ffffffffffffffffffffffffffffffffffffffff1681526020019081526020015f205f9054906101000a900460ff16156103c6576040517f08c379a00000000000000000000000000000000000000000000000000000000081526004016103bd90610839565b60405180910390fd5b80156103e85760035f8154809291906103de90610884565b9190505550610400565b60045f8154809291906103fa90610884565b91905055505b600160055f3373ffffffffffffffffffffffffffffffffffffffff1673ffffffffffffffffffffffffffffffffffffffff1681526020019081526020015f205f6101000a81548160ff02191690831515021790555050565b60018054610465906107bf565b80601f0160208091040260200160405190810160405280929190818152602001828054610491906107bf565b80156104dc5780601f106104b3576101008083540402835291602001916104dc565b820191905f5260205f20905b8154815290600101906020018083116104bf57829003601f168201915b505050505081565b60045481565b60035481565b5f73ffffffffffffffffffffffffffffffffffffffff82169050919050565b5f610519826104f0565b9050919050565b6105298161050f565b82525050565b5f6020820190506105425f830184610520565b92915050565b5f80fd5b6105558161050f565b811461055f575f80fd5b50565b5f813590506105708161054c565b92915050565b5f6020828403121561058b5761058a610548565b5b5f61059884828501610562565b91505092915050565b5f8115159050919050565b6105b5816105a1565b82525050565b5f6020820190506105ce5f8301846105ac565b92915050565b5f81519050919050565b5f82825260208201905092915050565b5f5b8381101561060b5780820151818401526020810190506105f0565b5f8484015250505050565b5f601f19601f8301169050919050565b5f610630826105d4565b61063a81856105de565b935061064a8185602086016105ee565b61065381610616565b840191505092915050565b5f6020820190508181035f8301526106768184610626565b905092915050565b610687816105a1565b8114610691575f80fd5b50565b5f813590506106a28161067e565b92915050565b5f602082840312156106bd576106bc610548565b5b5f6106ca84828501610694565b91505092915050565b5f819050919050565b6106e5816106d3565b82525050565b5f6020820190506106fe5f8301846106dc565b92915050565b7f50726f706f73616c2068617320616c7265616479206265656e206578656375745f8201527f6564000000000000000000000000000000000000000000000000000000000000602082015250565b5f61075e6022836105de565b915061076982610704565b604082019050919050565b5f6020820190508181035f83015261078b81610752565b9050919050565b7f4e487b71000000000000000000000000000000000000000000000000000000005f52602260045260245ffd5b5f60028204905060018216806107d657607f821691505b6020821081036107e9576107e8610792565b5b50919050565b7f596f75206861766520616c726561647920766f746564000000000000000000005f82015250565b5f6108236016836105de565b915061082e826107ef565b602082019050919050565b5f6020820190508181035f83015261085081610817565b9050919050565b7f4e487b71000000000000000000000000000000000000000000000000000000005f52601160045260245ffd5b5f61088e826106d3565b91507fffffffffffffffffffffffffffffffffffffffffffffffffffffffffffffffff82036108c0576108bf610857565b5b60018201905091905056fea2646970667358221220a0078bf00e97fe067b05bd04ba37f8df77dc7a5484730b4ebbf842e4b519cb7164736f6c63430008150033",
  "immutableReferences": {},
  "source": "// SPDX-License-Identifier: MIT\npragma solidity >=0.4.22 <0.9.0;\n\ncontract Proposal {\n    string public title;\n    string public description;\n    address public creator;\n    bool public executed;\n    uint256 public yesVotes;\n    uint256 public noVotes;\n    mapping(address => bool) public hasVoted;\n\n    constructor(string memory _title, string memory _description) {\n        title = _title;\n        description = _description;\n        creator = msg.sender;\n        executed = false;\n    }\n\n    function vote(bool _voteYes) public {\n        require(!executed, \"Proposal has already been executed\");\n        require(!hasVoted[msg.sender], \"You have already voted\");\n\n        if (_voteYes) {\n            yesVotes++;\n        } else {\n            noVotes++;\n        }\n\n        hasVoted[msg.sender] = true;\n    }\n\n    // View function to retrieve proposal data\n\n    // Function to execute the proposal\n    function executeProposal() public {\n        require(!executed, \"Proposal has already been executed\");\n        executed = true;\n    }\n}\n",
  "sourcePath": "C:\\Users\\amiro\\Documents\\Repos\\DAO Voting Platform\\Decentralized-Autonomous-Organization-DAO-Voting-Platform\\dao-voting-contracts\\contracts\\Proposal.sol",
  "compiler": {
    "name": "solc",
    "version": "0.8.21+commit.d9974bed.Emscripten.clang"
  },
  "schemaVersion": "3.4.16",
  "updatedAt": "2023-11-12T17:57:44.547Z",
  "devdoc": {
    "kind": "dev",
    "methods": {},
    "version": 1
  },
  "userdoc": {
    "kind": "user",
    "methods": {},
    "version": 1
  }
}