{
  "contractName": "User",
  "abi": [
    {
      "inputs": [
        {
          "internalType": "string",
          "name": "",
          "type": "string"
        }
      ],
      "name": "usernameExists",
      "outputs": [
        {
          "internalType": "bool",
          "name": "",
          "type": "bool"
        }
      ],
      "stateMutability": "view",
      "type": "function"
    },
    {
      "inputs": [
        {
          "internalType": "address",
          "name": "",
          "type": "address"
        }
      ],
      "name": "users",
      "outputs": [
        {
          "internalType": "string",
          "name": "username",
          "type": "string"
        },
        {
          "internalType": "bool",
          "name": "hasVoted",
          "type": "bool"
        }
      ],
      "stateMutability": "view",
      "type": "function"
    },
    {
      "inputs": [
        {
          "internalType": "string",
          "name": "_username",
          "type": "string"
        }
      ],
      "name": "registerUser",
      "outputs": [],
      "stateMutability": "nonpayable",
      "type": "function"
    },
    {
      "inputs": [],
      "name": "markVoted",
      "outputs": [],
      "stateMutability": "nonpayable",
      "type": "function"
    }
  ],
  "bytecode": "0x608060405234801561000f575f80fd5b50610aed8061001d5f395ff3fe608060405234801561000f575f80fd5b506004361061004a575f3560e01c8063704f1b941461004e5780638ebd0a4c1461006a578063a87430ba14610074578063f309e3f9146100a5575b5f80fd5b6100686004803603810190610063919061051e565b6100d5565b005b610072610201565b005b61008e600480360381019061008991906105bf565b6102eb565b60405161009c92919061067e565b60405180910390f35b6100bf60048036038101906100ba919061051e565b61039c565b6040516100cc91906106ac565b60405180910390f35b6001816040516100e591906106ff565b90815260200160405180910390205f9054906101000a900460ff1615610140576040517f08c379a00000000000000000000000000000000000000000000000000000000081526004016101379061075f565b60405180910390fd5b60405180604001604052808281526020015f15158152505f803373ffffffffffffffffffffffffffffffffffffffff1673ffffffffffffffffffffffffffffffffffffffff1681526020019081526020015f205f820151815f0190816101a69190610980565b506020820151816001015f6101000a81548160ff021916908315150217905550905050600180826040516101da91906106ff565b90815260200160405180910390205f6101000a81548160ff02191690831515021790555050565b5f15155f803373ffffffffffffffffffffffffffffffffffffffff1673ffffffffffffffffffffffffffffffffffffffff1681526020019081526020015f206001015f9054906101000a900460ff16151514610292576040517f08c379a000000000000000000000000000000000000000000000000000000000815260040161028990610a99565b60405180910390fd5b60015f803373ffffffffffffffffffffffffffffffffffffffff1673ffffffffffffffffffffffffffffffffffffffff1681526020019081526020015f206001015f6101000a81548160ff021916908315150217905550565b5f602052805f5260405f205f91509050805f018054610309906107aa565b80601f0160208091040260200160405190810160405280929190818152602001828054610335906107aa565b80156103805780601f1061035757610100808354040283529160200191610380565b820191905f5260205f20905b81548152906001019060200180831161036357829003601f168201915b505050505090806001015f9054906101000a900460ff16905082565b6001818051602081018201805184825260208301602085012081835280955050505050505f915054906101000a900460ff1681565b5f604051905090565b5f80fd5b5f80fd5b5f80fd5b5f80fd5b5f601f19601f8301169050919050565b7f4e487b71000000000000000000000000000000000000000000000000000000005f52604160045260245ffd5b610430826103ea565b810181811067ffffffffffffffff8211171561044f5761044e6103fa565b5b80604052505050565b5f6104616103d1565b905061046d8282610427565b919050565b5f67ffffffffffffffff82111561048c5761048b6103fa565b5b610495826103ea565b9050602081019050919050565b828183375f83830152505050565b5f6104c26104bd84610472565b610458565b9050828152602081018484840111156104de576104dd6103e6565b5b6104e98482856104a2565b509392505050565b5f82601f830112610505576105046103e2565b5b81356105158482602086016104b0565b91505092915050565b5f60208284031215610533576105326103da565b5b5f82013567ffffffffffffffff8111156105505761054f6103de565b5b61055c848285016104f1565b91505092915050565b5f73ffffffffffffffffffffffffffffffffffffffff82169050919050565b5f61058e82610565565b9050919050565b61059e81610584565b81146105a8575f80fd5b50565b5f813590506105b981610595565b92915050565b5f602082840312156105d4576105d36103da565b5b5f6105e1848285016105ab565b91505092915050565b5f81519050919050565b5f82825260208201905092915050565b5f5b83811015610621578082015181840152602081019050610606565b5f8484015250505050565b5f610636826105ea565b61064081856105f4565b9350610650818560208601610604565b610659816103ea565b840191505092915050565b5f8115159050919050565b61067881610664565b82525050565b5f6040820190508181035f830152610696818561062c565b90506106a5602083018461066f565b9392505050565b5f6020820190506106bf5f83018461066f565b92915050565b5f81905092915050565b5f6106d9826105ea565b6106e381856106c5565b93506106f3818560208601610604565b80840191505092915050565b5f61070a82846106cf565b915081905092915050565b7f5573657220616c726561647920726567697374657265640000000000000000005f82015250565b5f6107496017836105f4565b915061075482610715565b602082019050919050565b5f6020820190508181035f8301526107768161073d565b9050919050565b7f4e487b71000000000000000000000000000000000000000000000000000000005f52602260045260245ffd5b5f60028204905060018216806107c157607f821691505b6020821081036107d4576107d361077d565b5b50919050565b5f819050815f5260205f209050919050565b5f6020601f8301049050919050565b5f82821b905092915050565b5f600883026108367fffffffffffffffffffffffffffffffffffffffffffffffffffffffffffffffff826107fb565b61084086836107fb565b95508019841693508086168417925050509392505050565b5f819050919050565b5f819050919050565b5f61088461087f61087a84610858565b610861565b610858565b9050919050565b5f819050919050565b61089d8361086a565b6108b16108a98261088b565b848454610807565b825550505050565b5f90565b6108c56108b9565b6108d0818484610894565b505050565b5b818110156108f3576108e85f826108bd565b6001810190506108d6565b5050565b601f82111561093857610909816107da565b610912846107ec565b81016020851015610921578190505b61093561092d856107ec565b8301826108d5565b50505b505050565b5f82821c905092915050565b5f6109585f198460080261093d565b1980831691505092915050565b5f6109708383610949565b9150826002028217905092915050565b610989826105ea565b67ffffffffffffffff8111156109a2576109a16103fa565b5b6109ac82546107aa565b6109b78282856108f7565b5f60209050601f8311600181146109e8575f84156109d6578287015190505b6109e08582610965565b865550610a47565b601f1984166109f6866107da565b5f5b82811015610a1d578489015182556001820191506020850194506020810190506109f8565b86831015610a3a5784890151610a36601f891682610949565b8355505b6001600288020188555050505b505050505050565b7f557365722068617320616c726561647920766f746564000000000000000000005f82015250565b5f610a836016836105f4565b9150610a8e82610a4f565b602082019050919050565b5f6020820190508181035f830152610ab081610a77565b905091905056fea26469706673582212206ed3656cdbe822e587804e348bd36b32a2bf8265329c0a6e9ccab5222411b71064736f6c63430008150033",
  "immutableReferences": {},
  "source": "// SPDX-License-Identifier: MIT\npragma solidity >=0.4.22 <0.9.0;\n\ncontract User {\n    struct UserInfo {\n        string username;\n        bool hasVoted;\n    }\n\n    mapping(address => UserInfo) public users;\n    mapping(string => bool) public usernameExists;\n\n    function registerUser(string memory _username) public {\n        require(!usernameExists[_username], \"User already registered\");\n        users[msg.sender] = UserInfo(_username, false);\n        usernameExists[_username] = true;\n    }\n\n    function markVoted() public {\n        require(users[msg.sender].hasVoted == false, \"User has already voted\");\n        users[msg.sender].hasVoted = true;\n    }\n}\n",
  "sourcePath": "C:\\Users\\amiro\\Documents\\Repos\\DAO Voting Platform\\Decentralized-Autonomous-Organization-DAO-Voting-Platform\\dao-voting-contracts\\contracts\\User.sol",
  "compiler": {
    "name": "solc",
    "version": "0.8.21+commit.d9974bed.Emscripten.clang"
  },
  "schemaVersion": "3.4.16",
  "updatedAt": "2023-11-12T17:57:44.555Z",
  "devdoc": {
    "kind": "dev",
    "methods": {},
    "version": 1
  },
  "userdoc": {
    "kind": "user",
    "methods": {},
    "version": 1
  }
}